:020000040800F2
:10000000F00400209D0100087F1B0008A7190008CC
:100010007D1B000811070008011F000800000000F8
:10002000000000000000000000000000831B00082A
:100030001307000800000000811B0008851B000852
:10004000B7010008B7010008B7010008B7010008B0
:10005000B7010008B701000815070008510700089C
:10006000570700085D07000863070008B70100088C
:10007000B7010008B7010008B7010008B701000880
:10008000B7010008B7010008B7010008B701000870
:10009000B7010008B7010008B701000869070008A8
:1000A000B7010008B7010008B7010008B701000850
:1000B000B7010008351C0008B7010008B7010008A7
:1000C000B7010008B7010008B7010008B701000830
:1000D000B7010008B7010008B7010008B701000820
:1000E0001B070008B7010008B7010008B7010008A6
:1000F000B7010008B7010008B7010008B701000800
:10010000B7010008B7010008B7010008B7010008EF
:10011000B7010008B7010008B7010008B7010008DF
:10012000B7010008B7010008B7010008B7010008CF
:10013000B7010008B7010008B7010008B7010008BF
:10014000B7010008B7010008B7010008B7010008AF
:10015000B7010008B7010008B7010008B70100089F
:10016000B7010008B7010008B7010008B70100088F
:10017000B7010008B7010008B7010008000000003F
:10018000B7010008B7010008DFF80CD000F0AEFAA4
:1001900000480047B1290008F004002006488047C5
:1001A00006480047FEE7FEE7FEE7FEE7FEE7FEE75C
:1001B000FEE7FEE7FEE7FEE7191C000889010008DC
:1001C0002DE9F05F0546002092469B46884606468C
:1001D000814640241BE0284641464746224600F01F
:1001E00005FA53465A46C01A914110D31146184693
:1001F000224600F0ECF92D1A67EB01084F46224623
:100200000120002100F0E3F917EB00094E41201E08
:10021000A4F10104DFDC484631462A464346BDE8E6
:10022000F09FD2B201E000F8012B491EFBD27047CB
:100230000022F6E710B513460A4604461946FFF7B2
:10024000F0FF204610BD2DE9FE4F804681EA0300F5
:10025000C00F0C46009021F0004123F00045B8EBA0
:100260000200A94105D24046214690461C460B4655
:10027000024623F00040104347D0270DC7F30A0081
:10028000C3F30A510290401A019040286BDAC3F37D
:10029000130040F4801B0098924620B10023D2EB5B
:1002A000030A63EB0B0B01985946C0F1400250461C
:1002B00000F08DF906460D4650465946019A00F069
:1002C000A5F910EB08006141002487EA115284EA85
:1002D000E7731A4340D0009A62B3019A012A4FEAA9
:1002E000075215DC001B61EB02014FF0004202EAED
:1002F0000752CDE90042001C41F5801132462B46E1
:1003000000F0A5F903B0BDE8F08F40462146F9E7BB
:10031000001B61EB0201001C41F5801300185B41DA
:100320002018A2F5001747EB030140EAD570B61973
:100330006D4111E06D084FEA360645EAC0754FEA97
:100340000752001B61EB0201001C41F580114908B6
:100350004FEA30000019514132462B4603B0BDE848
:10036000F04F00F065B90098012240000023D0EB67
:10037000020263EBE073009821464FEAE074B8EBA9
:10038000000061EB0401E9E783F000435BE781F0E3
:10039000004158E72DE9FE4F81EA030404F00044D0
:1003A00021F0004100944FF0000B23F0004350EA8D
:1003B00001045ED052EA03045BD0C3F30A54C1F3D4
:1003C0000A552C44A4F2F3340194A0FB0254C1F367
:1003D000130141F48011C3F3130343F4801301FBB1
:1003E000024400FB034E840A970A44EA815447EA18
:1003F0008357A4FB076802958D0A05FB07854FEA22
:10040000932C04FB0C542705029D4FEA065847EA3B
:100410001637B5EB08056EEB070C870E920E47EA10
:10042000811742EA8312A7FB0201B6EB0B0164EBD2
:1004300000042B0D43EA0C335E1844EB1C50DA46E3
:100440005146E7FB0201C5F313044FEA0B3343EABD
:1004500014534FEA0432019C43EA0603A4F10C044E
:100460000294009CCDE900B400F0F1F803B0BDE8BF
:10047000F08F00200146F9E72DE9F04D81EA0304F1
:1004800004F0004B21F0004514464FF0000A23F021
:10049000004150EA050220D054EA01021DD0C5F304
:1004A0000A570246C5F31303C1F31300C1F30A56FA
:1004B00040F4801543F48013A7EB0608101BD646C2
:1004C00008F2FD3873EB050002D308F1010801E0E2
:1004D00092185B41B8F1000F03DA00200146BDE835
:1004E000F08D00204FF48011064684460EE0171B65
:1004F00073EB050705D3121B63EB050306434CEAB8
:10050000010C49084FEA300092185B4150EA01079C
:10051000EDD152EA030012D082EA040083EA050119
:10052000084305D0101BAB4106D20122002306E090
:1005300000224FF0004302E06FF0010253101AEB6B
:1005400006004CEB085110EB0A0041EB0B01BDE833
:10055000F04D00F06DB80EB540F23341029100212C
:10056000CDE900110A460B4600F071F803B000BD5A
:10057000C1F30A5210B5C1F3130140F2FF3341F445
:1005800080119A4201DA002010BD40F233439A42B2
:10059000A2F2334203DC524200F028F810BD904032
:1005A00010BD30B50B46014600202022012409E091
:1005B00021FA02F59D4205D303FA02F5491B04FA1C
:1005C00002F52844151EA2F10102F1DC30BD202AFB
:1005D00004DB203A00FA02F1002070479140C2F19A
:1005E000200320FA03F3194390407047202A04DBCC
:1005F000203A21FA02F00021704721FA02F3D0409C
:10060000C2F120029140084319467047202A06DBB8
:10061000CB17203A41FA02F043EAE07306E041FAD0
:1006200002F3D040C2F120029140084319467047BE
:1006300010B5141E73F1000408DA401C41F10001EA
:1006400092185B411A4301D120F0010010BD2DE941
:10065000F04D92469B4611B1B1FA81F202E0B0FA38
:1006600080F220329046FFF7B2FF04460F4640EA80
:100670000A0041EA0B0153465A46084313D011467B
:1006800053EA010019D0C8F140025046FFF7AEFF0F
:1006900005460E46504659464246FFF798FF084326
:1006A00005D0012004E020463946BDE8F08D002049
:1006B000054346EAE0762C4337430A986305E40A8B
:1006C000A0EB08000022FD0A44EA47540A3002D594
:1006D00000200146E9E7010510196941DDE90845F7
:1006E00000196941BDE8F04DA2E70000064C074D36
:1006F00006E0E06840F0010394E8070098471034F2
:10070000AC42F6D3FFF744FDE8300008083100089A
:10071000FEE77047012000F01FBA10B54FF480606B
:1007200000F01AFA4FF4006000F016FA4FF480500F
:1007300000F012FA4FF4005000F00EFA4FF480402F
:1007400000F00AFABDE810404FF4004000F004BA8F
:10075000022000F001BA042000F0FEB9082000F0E9
:10076000FBB9102000F0F8B910B5202000F0F4F922
:10077000402000F0F1F9802000F0EEF94FF4807095
:1007800000F0EAF9BDE810404FF4007000F0E4B961
:1007900072B6FEE710B55A220421002002F0BCF91F
:1007A0004FF4FA642046002101F0E2FE5A220421AF
:1007B000012002F0B1F92046002101F0D9FE5A22B1
:1007C0000421022002F0A8F92046002101F0D0FE09
:1007D0005A220421032002F09FF92046002101F053
:1007E000C7FE04215A22084602F096F92046BDE8C9
:1007F0001040002101F0BCBE70B5044600F09AFA2A
:100800000546601C02D004480078044400F092FAC7
:10081000401BA042FAD370BD1C00002070B54FF4FD
:100820008075CA4ECA4C0246A84277D012DC102A04
:1008300057D008DC012A3AD0022A6DD0042A43D0CE
:1008400008281FD1ADE0202A67D0402A56D0802842
:10085000F7D1BEE04FF48055AA427AD013DC4FF4B2
:100860000075AA4274D06D00AA4264D06D00A842FF
:10087000E7D10120FFF7C0FF2946304600F054FAC7
:10088000002872D0D0E04FF40055AA426ED06D001F
:10089000AA426DD06D00A842F4D10120FFF7ACFF51
:1008A0002946304600F040FA002879D0BCE001200B
:1008B000FFF7A2FF0121304600F036FA002802D1EE
:1008C0006078401C6070AFE00120FFF795FF0421C5
:1008D000304600F029FA002802D1A078401CA07010
:1008E000A2E00120FFF788FF1021304600F01CFA3B
:1008F000002802D1E078401CE07095E00120FFF76D
:100900007BFF0121304600F00FFA002802D1207948
:10091000401C207188E001E036E04EE00120FFF746
:100920006BFF2946304600F0FFF900287CD1607942
:10093000401C607178E00120FFF75EFF29463046D9
:1009400000F0F2F9F8B9A079401CA0716CE000E069
:100950004BE00120FFF750FF2946304600F0E4F954
:1009600088B9E079401CE0715EE04AE04DE0FFE7C5
:100970000120FFF741FF2946304600F0D5F910B9B4
:10098000207A401C20724FE00120FFF735FF022142
:10099000304600F0C9F938BB607A401C607243E011
:1009A0003FE00120FFF728FF0821304600F0BCF9A6
:1009B000D0B9A07A401CA07236E00120FFF71CFFDE
:1009C0002021304600F0B0F970B9E07A401CE072A6
:1009D0002AE00120FFF710FF8021304600F0A4F943
:1009E00010B9207B401C20731EE00120FFF704FF9C
:1009F0002946304600F098F9B0B9607B401C60731E
:100A000012E0A07B401CA0730EE00120FFF7F4FE73
:100A10002946304600F088F930B9E07B401CE0738D
:100A200002E0207C401C2074E07B012802D1207869
:100A300001283AD06078474E6FF00105062805D3AB
:100A4000217A062902D32178022934D0217A032978
:100A500004D3032802D32278032A38D0002835D0C3
:100A6000A27832B1E37823B1237913B12378042B30
:100A700033D0032804D3032902D32378072B35D09E
:100A800002280AD3022A08D3E278022A05D322795F
:100A9000022A02D32278082A2ED0052844D3052919
:100AA00044D320780A2834D040E001F0EDFC02F075
:100AB0006DF8022009E002F069F801F0E5FC306809
:100AC0000561244800F023FD0520207070BD02F070
:100AD0005DF801F0D9FC0420F7E701F0D5FC30689F
:100AE00005611C4800F013FD06200DE002F04EF8F1
:100AF00001F0CAFC0820E8E701F0C6FC3068056197
:100B0000144800F004FD09202070BDE8704002F098
:100B10003DB801F0B9FC306805610E4800F0F7FC03
:100B200002F034F80B20D0E70228CFD30229CDD32E
:100B300020780C28CAD101F0A7FC3068056105486F
:100B400000F0E5FC02F022F80D20BEE7000C0240A8
:100B50000B0000202C000020044910B50A68024256
:100B600002D00860FFF75AFE10BD0000143C01409F
:100B70002DE9F84F00224FF0010803254FF00F0E2A
:100B80000B6808FA02F42340A3426ED14E68012E8E
:100B900005D0022E03D0112E01D0122E12D186685C
:100BA0004FEA420C05FA0CF7BE43CF6807FA0CF780
:100BB000374387604668A6430C79C4F30014944019
:100BC00034434460C668570005FA07FC8C6826EA7F
:100BD0000C06BC403443C4604C68022C01D0122C7B
:100BE00013D1D40800EB8404A346D4F82090540712
:100BF0004FEAD46A0EFA0AF629EA06090E6906FADD
:100C00000AF646EA0906CBF8206006680C7926EA5F
:100C10000C0604F00304BC40344304604C68E40058
:100C200065D5364C266846F480462660246822F056
:100C3000030604F480440094314C3444A446D4F8B0
:100C400008489607370F0EFA07F6B4432D4EB04208
:100C500001D1002624E02C4EB04201D101261FE034
:100C60002A4EB04202D102261AE040E0284EB0429D
:100C700001D1032614E0274EB04201D104260FE033
:100C8000254EB04201D105260AE0244EB04201D1E2
:100C9000062605E0224EB04201D1072600E00826D4
:100CA000BE402643CCF808681E4E34684F689C430B
:100CB000FF0300D51C4334601A4C241D26684F687E
:100CC0009E43BF0300D51E432660164E0836346887
:100CD0004F689C43FF0200D51C433460114E0C3614
:100CE00034684F689C43BF0200D51C433460521CDB
:100CF000102AFFF445AFBDE8F88F000044380240E9
:100D000000300140000002400004024000080240A0
:100D1000000C024000100240001402400018024083
:100D2000001C0240003C01400069084000D0012046
:100D30007047000001488068704700001C000020D8
:100D40000248816802781144816070471C000020CD
:100D50000B4810B5016841F400710160016841F46D
:100D600080610160016841F480710160032000F03E
:100D70006FF8002000F006F800F024F8002010BD05
:100D8000003C024070B50D4D04464FF47A7128784E
:100D9000B1FBF0F00A490968B1FBF0F000F00EFB7E
:100DA00048B9102C07D200222146501E00F030F81E
:100DB00000206C6070BD012070BD00001C00002090
:100DC000280000200A4808B5016841F4804101600C
:100DD000006800F4804000900548001F016841F061
:100DE00080510160006800F08050009008BD000054
:100DF00044380240002809DB00F01F020121914025
:100E00004009800000F1E020C0F8001170470000A8
:100E1000F0B40E4B1B680C46C3F30223C3F1070565
:100E2000042D00D90425191D072901D2002300E053
:100E3000DB1E012606FA05F1491E214099409E401D
:100E4000761E16403143F0BC01F088B80CED00E08E
:100E5000064900F0070208684FF6FF03184040EA11
:100E60000220034A10430860704700000CED00E0C8
:100E70000000FA052DE9F0470E46050065D0DFF8C1
:100E80001481D8F80000F7B200F00F00B04207D28A
:100E900088F80070D8F8000000F00F00B04254D17C
:100EA00028683D4C810712D5400703D5206840F4DF
:100EB000E05020602878000703D5206840F46040A7
:100EC00020602068A96820F0F0000843206028789E
:100ED000C0072DD0304968680839012812D002288F
:100EE00013D0032811D00968890700292DDA216859
:100EF00021F0030101432160FFF71CFF814641F20D
:100F0000883A0EE009688903EFE709688901ECE790
:100F1000FFF710FFA0EB0901514502D90320BDE8FE
:100F2000F0872068696800F00C00B0EB810FEFD10A
:100F3000D8F80010404601F00F01B14207D9077000
:100F4000006800F00F00B04201D00120E7E72878E8
:100F5000400705D52068E96820F4E0500843206088
:100F60002878000706D52068296920F4604040EA07
:100F7000C100206000F038F82168084AC1F303116D
:100F8000515CC8400649086006480068FFF7FAFE51
:100F90000020C4E7003C024008380240D03000087E
:100FA0002800002020000020044805490068096846
:100FB000044AC1F38221515CC840704728000020D8
:100FC00008380240E0300008044805490068096814
:100FD000044AC1F34231515CC840704728000020E8
:100FE00008380240E0300008154810B5006810F0DD
:100FF0000C02144813D04110042A0FD0082A0ED135
:101000000F4C241F2268236802F03F025B0207D5C1
:101010002068C0F38810A0FB010106E0084610BD5F
:101020002168C1F38811A1FB00010023FFF7C8F874
:101030002168C1F30141491C4900B0FBF1F010BD2A
:10104000083802400024F4002DE9F84F04006ED067
:101050002078DFF83C93C007A9F104054AD009F1D4
:1010600004000168C1F38101012908D00068C0F3C0
:10107000810002280AD1D9F80000400206D528686C
:10108000800337D560680028E1D033E06068B0F5B0
:10109000803F10D0B0F5A02F286810D020F4803009
:1010A0002860286820F4802028606068A8B1FFF7D5
:1010B00041FE06460DE0286840F48030F4E740F435
:1010C00080202860F7E700BFFFF734FE801B64280C
:1010D00073D828688003F7D50CE0FFF72BFE06468F
:1010E00005E000BFFFF726FE801B6428F0D82868C3
:1010F0008003F7D42078DFF89C8280074FF0000A45
:101100003ED5A348001D016811F00C0F08D00068FF
:10111000C0F3810002280BD1D9F80000400207D4A7
:101120002868800716D5E068012800D112E02BE17D
:10113000E068B8B10120C8F80000FFF7FBFD0646E3
:1011400005E000BFFFF7F6FD801B0228C0D8286825
:101150008007F7D52868216920F0F80040EAC1002F
:1011600028600DE0C8F800A0FFF7E4FD064604E0A3
:10117000FFF7E0FD801B02281FD828688007F7D4FE
:101180002078000722D5824E83486169703671B19C
:1011900001210160FFF7CEFD074604E0FFF7CAFD1D
:1011A000C01B022809D830688007F7D50EE0C0F8C8
:1011B00000A0FFF7BFFD074605E082E0FFF7BAFD9C
:1011C000C01B02287DD830688007F7D420784007FC
:1011D00068D5DFF8BCB100270BF13C0BDBF8000051
:1011E000C0000BD4DBF8001041F08051CBF80010A8
:1011F000DBF80000012700F080500090674E306857
:10120000C00510D4306840F480703060FFF792FD64
:10121000009005E0FFF78EFD0099401A022850D893
:101220003068C005F6D55A4EA0686C3601280FD03C
:101230000528306810D020F001003060306820F0C0
:1012400004003060A068B8B1FFF774FD00900FE0B3
:10125000306840F00100F4E740F004003060F7E748
:10126000FFF768FD0099411A41F28830814266D843
:1012700030688007F4D50EE0FFF75CFD009007E0D2
:10128000FFF758FD0099411A41F28830814256D843
:1012900030688007F4D42FB1DBF8001021F08051C2
:1012A000CBF80010A069C8B33949091D0968C1F31A
:1012B000810102294AD00228504607D0C8F86000B0
:1012C00000E03CE0FFF736FD04463BE04746C8F847
:1012D0006000FFF72FFD064605E000BFFFF72AFD7F
:1012E000801B02282BD828688001F7D4D4E9070195
:1012F0000843A16A2A4A490802EB0141626A41EAAD
:101300008211084394F82C1040EA0161C9F80010DA
:1013100001203866FFF70EFD044606E036E000BF08
:10132000FFF708FD001B022809D828688001F7D5BF
:101330002CE000BFFFF7FEFC001B022802D90320AF
:10134000BDE8F88F28688001F4D41FE00128F7D0A9
:10135000D9F80000E26900F48001914214D1226AB8
:1013600000F03F0191420FD147F6C071626A01401F
:10137000914209D1A26A00F44031914204D1E16A5C
:1013800000F07060884201D00120D9E70020D7E743
:101390000438024000004742800E4742007000407F
:1013A0000000FFFF4FF0E0210428086903D020F07F
:1013B00004000861704740F00400FAE710B5401ED1
:1013C000B0F1807F01D3012010BD4FF0E0246061B7
:1013D0000F21601700F0C2FD0020A06107202061EE
:1013E000002010BD7047704770B590F83C20012A6E
:1013F00032D0012480F83C40022280F83D2003686E
:101400005A689D6822F070060A6832435A60134B8E
:1014100002689A4214D0B2F1804F11D0104B9A4218
:101420000ED0104B9A420BD00F4B9A4208D00F4B64
:101430009A4205D00E4B9A4202D00E4B9A4204D1EA
:10144000496825F080031943916080F83D400021F0
:1014500080F83C10084670BD022070BD00000140BD
:101460000004004000080040000C0040000401405F
:10147000004001400018004010B5040003D094F86B
:101480003D0010B107E0012010BD002084F83C00B1
:10149000204600F00DF8022084F83D00211D206850
:1014A00000F0CEFB012084F83D00002010BD0000BC
:1014B00008B500680B49884212D10B48016841F019
:1014C000020101600068002200F002000090022189
:1014D0001D20FFF79DFCBDE808401D20FFF78ABCDA
:1014E00008BD000000040040403802400168CA689E
:1014F00042F00102CA600068816801F00701062914
:1015000003D0016841F001010160002070470168CB
:10151000CA6822F00102CA600068016A41F2111231
:10152000114207D1016A9210114203D1016821F0E2
:10153000010101600020704770B5044690F83C003E
:10154000012817D0012584F83C50022084F83D0082
:101550002068826822F0770222F47F428260086865
:10156000502830D00DDC20284DD005DC98B3102851
:101570003BD148E0022070BD302844D0402834D10F
:1015800039E0602828D0702806D0B0F5805F2CD0D4
:10159000B0F5005F29D10AE0CB68D1E901212068CC
:1015A00000F0B2FB2068816841F0770109E0CB6868
:1015B000D1E90121206800F0A7FB2068816841F48F
:1015C0008041816011E0CA684968206800F0AEFB84
:1015D0005021206807E016E0CA684968206800F0DA
:1015E000B6FB6021206800F099FB84F83D50002094
:1015F00084F83C0070BDCA684968206800F096FB1A
:1016000040212068EFE7226801461046EBE770476B
:1016100070B50446006801694FF00005C9438907A9
:1016200015D4C168C943890711D4E91E016101209D
:101630002077206880698007204602D0FFF7E7FF07
:1016400004E000F098F8204600F096F8257720682E
:101650000169C943490717D4C168C943490713D46D
:101660006FF004010161022020772068806910F486
:10167000407F204602D0FFF7CAFF04E000F07BF86D
:10168000204600F079F8257720680169C9430907E9
:1016900016D4C168C943090712D46FF0080101616B
:1016A000042020772068C0698007204602D0FFF719
:1016B000AEFF04E000F05FF8204600F05DF825770B
:1016C00020680169C943C90617D4C168C943C9065E
:1016D00013D46FF010010161082020772068C069E1
:1016E00010F4407F204602D0FFF791FF04E000F0A5
:1016F00042F8204600F040F8257720680169C94388
:10170000C90708D1C168C943C90704D1891E01614D
:10171000204600F033F820680169C943090609D45E
:10172000C168C943090605D46FF0800101612046F4
:10173000FFF758FE20680169C943490609D4C1680A
:10174000C943490605D46FF040010161204600F00D
:101750004DF820680169C94389060BD4C168C943A3
:10176000890607D46FF0200101612046BDE8704072
:10177000FFF739BE70BD704770470000184910B5BB
:1017800088422BD14FF480711648FFF7CDFA1649E5
:1017900008B962200870087806280FD006DC0628F1
:1017A0001CD2DFE800F01B1317170F0B072811D00E
:1017B000082807D00A280DD062280FD1BDE81040B4
:1017C00001F0E4B9BDE8104001F01EBABDE81040D8
:1017D00000F096BDBDE8104001F03EB810BD00001D
:1017E0002C000020000402400B000020704770B560
:1017F000040004D094F83900002510B106E001205F
:1018000070BD84F83850204600F022F8242084F877
:1018100039002068C16821F40051C160204600F001
:10182000A9FA2068016921F49041016120684169A9
:1018300021F02A0141612068C16841F40051C16072
:10184000E563202084F8390084F83A00002070BD58
:10185000F0B587B0044614216846FEF7E9FC1F4F37
:10186000236800221E490224032507261D48BB4287
:1018700013D11B4B14331F6847F010071F601B6800
:1018800003F0100305930B6843F001030B60096834
:1018900001F001010591690215E0134FBB421AD115
:1018A0000F4B10331F6847F400371F601B6803F4A9
:1018B000003305930B6843F001030B60096801F0E6
:1018C000010105910C21CDE9001402AB694683E8C2
:1018D0006400FFF74DF907B0F0BD000000100140B3
:1018E0003038024000000240004400402DE9F84337
:1018F000044690F839001F4616460D46202850D160
:10190000B5B1AEB194F8380001284AD0012084F86E
:1019100038004FF00008C4F83C80212084F83900DA
:10192000FFF708FAA6848146E68484F8388026E02A
:101930000120BDE8F883E08C401EE084A0684B469F
:10194000B0F5805F4FF000024FF080012046009715
:1019500003D000F0A3FAE8B90DE000F09FFAC8B98F
:1019600028882168C0F308004860206908B16D1C10
:1019700005E0AD1C03E0216815F8010B4860E08C20
:101980000028D8D14B46002240212046009700F085
:1019900085FA08B10320CCE7202084F83900002024
:1019A000C7E70220C5E7FEE730B587B014216846D7
:1019B000FEF73EFC37480025016841F080010160D8
:1019C000016801F080010591016841F001010160A9
:1019D000016801F001010591016841F00801016011
:1019E000016801F008010591016841F00201016000
:1019F0000068012400F0020005904FF6FF7000908F
:101A00002548CDE9010469462448FFF7B1F82002D2
:101A1000CDE90005694602942148FFF7A9F80022A4
:101A200001210620FFF7F4F90620FFF7E3F9002271
:101A300001210720FFF7ECF90720FFF7DBF900226F
:101A400001210820FFF7E4F90820FFF7D3F900226D
:101A500001210920FFF7DCF90920FFF7CBF900226B
:101A600001210A20FFF7D4F90A20FFF7C3F9002269
:101A700001211720FFF7CCF91720FFF7BBF900224F
:101A800001212820FFF7C4F92820FFF7B3F907B098
:101A900030BD00003038024000002110000C024030
:101AA0000004024010B586B0002417480094019449
:101AB00002940394049413490594016041F61F4174
:101AC000C0E901143121C0E9031480218161FFF7CD
:101AD000D3FC08B1FEF75CFE4FF4805000906946DD
:101AE0000948FFF729FD08B1FEF752FE049404A946
:101AF00005480594FFF778FC002801D0FEF748FE62
:101B000006B010BD000400402C0000200C4810B5A9
:101B10000A4901604FF4E1314160002181600C22EB
:101B2000C160C0E904128161C161FFF760FE002855
:101B300003D0BDE81040FEF72BBE10BD00100140E1
:101B40006C0000200C4810B50A4901604FF4165192
:101B50004160002181600C22C160C0E904128161F2
:101B6000C161FFF744FE002803D0BDE81040FEF736
:101B70000FBE10BD00440040AC000020FEE7FEE7B1
:101B800070477047FFF7DCB830B593B03021684636
:101B9000FEF74EFB14210CA8FEF74AFB1C4800255B
:101BA000016841F080510160006800F080501190A0
:101BB0001848016841F4804101600068022400F483
:101BC0008040119001200090000401908001CDE937
:101BD000064008AA0420482182E813000B906846BA
:101BE000FFF732FA08B172B6FEE70CA90F2081E8C0
:101BF00031004FF480500F90109002210CA8FFF795
:101C000039F9002801D072B6FEE713B030BD0000EC
:101C100040380240007000400548016841F47001FE
:101C2000016003494FF00060803908607047000090
:101C300088ED00E00148FFF7EBBC00002C0000201D
:101C4000F0B50268254C264D264E274F274B4FF006
:101C5000804CA04209D0604507D0A84205D0B042D0
:101C600003D0B84201D0984204D122F0700E4A68E5
:101C700042EA0E02A0421BD0604519D0A84217D0FC
:101C8000B04215D0B84213D0984211D0184DA84296
:101C90000ED0184DA8420BD0174DA84208D0174DB2
:101CA000A84205D0164DA84202D0164DA84203D135
:101CB00022F44075CA682A434D6922F080022A4303
:101CC00002608A68C2620A688262A04201D09842B9
:101CD00001D10969016301214161F0BD00000140AA
:101CE0000004004000080040000C004000040140D7
:101CF00000400140004401400048014000180040FD
:101D0000001C00400020004010B5846842EA032215
:101D100024F47F440A432243826010BD826822F08B
:101D200070020A4342F007018160704710B5036AF0
:101D3000046A24F001040462846924F0F00444EA93
:101D4000021423F00A020A438461026210BD10B536
:101D5000036A23F0100303628369046A23F4704367
:101D600043EA023224F0A00343EA011182610162D6
:101D700010BD00002DE9F041044600680169E268E9
:101D800021F44051114301612169A068E2690843CF
:101D90006169114308432168CA6849F20C639A4398
:101DA0000243CA6020684169A26921F4407111436D
:101DB0004161E069192764253226B0F5004F354AA4
:101DC000354920684FF0000806D0884201D0904283
:101DD00036D1FFF7F9F835E0884201D0904202D1C0
:101DE000FFF7F2F801E0FFF7DFF861684A18A0FB9F
:101DF000070148EB0803FEF7E3F90146B0FBF5F0F5
:101E00000201B1FBF5F06FF01803584301EB8000BD
:101E100006EBC000B0FBF5F000F0F80002EB40026A
:101E2000B1FBF5F0584301EB800006EBC000B0FBBE
:101E3000F5F000F00700216810448860BDE8F081EB
:101E4000FFF7B2F861688B0F8A00A0FB0701FEF76D
:101E5000B7F90146B0FBF5F06FF01802504301EB03
:101E6000800006EB0010B0FBF5F000F0F002B1FBD3
:101E7000F5F002EB0012B1FBF5F06FF018035843D8
:101E800001EB800006EB0010B0FBF5F000F00F0056
:101E9000D1E7000000140140001001402DE9F0419D
:101EA000984617460E460446069D1DE0681C1BD04A
:101EB0002DB1FEF73FFFA0EB0800A84214D920681F
:101EC000C16821F4D071C1602068416921F001012D
:101ED0004161202084F8390084F83A00002084F819
:101EE00038000320BDE8F0812068006836EA000071
:101EF00004D00020B842D9D00020F3E70120F9E750
:101F0000FEE700000FB41CB50246002007AC002914
:101F10000BD0491ECDE90021054B6A4621460698A3
:101F200000F03CF8009A002111701CBC5DF814FB15
:101F3000DF2200080FB4084B10B504A902AA0398C9
:101F400000F02CF8044602A9002000F0D3F9204646
:101F500010BC5DF814FB0000F52200080907090E0B
:101F6000002804DB00F1E02080F80014704700F046
:101F70000F0000F1E02080F8141D704702E008C84F
:101F8000121F08C1002AFAD170477047002001E0F3
:101F900001C1121F002AFBD1704700002DE9FF4F3D
:101FA0008BB088460546002606E025280BD0DDE9E3
:101FB0000D1290476D1C761C28780028F5D10FB0C3
:101FC0003046BDE8F08F0024A146A2460122AE496A
:101FD00000E0044315F8013F203B02FA03F00842F9
:101FE000F7D128782A2810D06FF02F022878A0F196
:101FF0003001092915D809EB890102EB410144F0B0
:10200000020400EB01096D1CF0E758F8041B5FEABD
:10201000010903D544F40054C9F1000944F0020455
:102020006D1C28782E2817D115F8010F44F00404F0
:102030002A280ED06FF02F022878A0F1300109294C
:102040000AD80AEB8A0102EB410100EB010A6D1C80
:10205000F2E758F804AB6D1C28786C280FD006DC2A
:102060004C2817D068280DD06A2814D104E07428B1
:1020700010D07A280FD10DE044F400140AE044F4A3
:10208000801401E044F440146978814202D104F5DF
:1020900080146D1C6D1C2878692865D006DC00282A
:1020A0008DD0632827D0642806D15DE06E2808D043
:1020B00073282AD0752877D0DDE90D129047761C59
:1020C000E0E0C4F30250022809D003280DD0D8F86C
:1020D000001004280DD00E6008F10408D2E0D8F8F2
:1020E0000010F217C1E90062F6E7D8F800100E8080
:1020F000F2E70E70F0E718F8041B8DF800100020CE
:102100008DF80100EB46012003E058F804BB4FF0C6
:10211000FF3061074FF0000701D40AE07F1C5745EC
:102120000DDA8742FADB1BF807100029F6D106E02A
:102130007F1C8742FCDB1BF807100029F8D1DDE982
:102140000D23A9EB07008146214600F0B1F8304489
:10215000C61904E0DDE90D121BF8010B90477F1E44
:10216000F8D22146484688E058F8040BC4F30251DF
:102170004FF00A0B032900D100B2042900D140B26C
:10218000002802DA40422D2102E0210505D52B214D
:102190008DF82410012104E006E0E10710D0202191
:1021A000F6E708AF089113E058F8040BC4F30251A6
:1021B0004FF00A0B032900D180B2042900D1C0B22C
:1021C0000021EEE75946FEF7ECF9303107F8011D22
:1021D0000028F7D1ADEB070000F1200B600702D516
:1021E00024F4803401E04FF0010ADA4502DDAAEB65
:1021F0000B0000E00020824600EB0B010898014430
:10220000A9EB01000A90E00306D4DDE90D23214685
:102210000A9800F04DF806444FF0000908E009A9BB
:1022200011F80900DDE90D12904709F10109761C4A
:1022300008998945F3DBE0030CD5DDE90D23214640
:102240000A9800F035F8064404E0DDE90D1230206C
:102250009047761CBAF10001AAF1010AF5DC05E00D
:10226000DDE90D1217F8010B9047761CBBF1000158
:10227000ABF1010BF4DC0A982146DDE90D2300F0F7
:1022800005F806446D1C97E6092801002DE9F04188
:10229000044600251E461746880404D405E0394646
:1022A0002020B0476D1C641EF9D52846BDE8F0819A
:1022B0002DE9F041044600251E469046C80301D58D
:1022C000302700E02027880404D505E04146384641
:1022D000B0476D1C641EF9D52846BDE8F0814A68F8
:1022E000002A06D00A68531C0B6010704868401E14
:1022F000486070470A68531C0B60107070470000FC
:10230000F0B58DB001248DF804408DF810408DF8A3
:1023100014408DF8184006AB05AA04A901A800F0E6
:102320001BFA9DF804109DF810209DF814300D46FE
:1023300041EA02069DF8180046EA030151EA000747
:102340002ED009B901284CD01EB9012B01D101288A
:1023500022D015B1012D09D022E0012A20D1012B74
:102360001ED101281CD100F065F91BE012B1012A31
:102370000BD015E013B1012B02D011E060B10FE0DA
:1023800001280DD100F08EF90CE013B1012B06D01D
:1023900006E008B1012803D100F0A0F902E000B383
:1023A00000F058F88DF81C408DF820408DF808405A
:1023B0008DF80C4003AB02AA08A907A800F0AAF9FF
:1023C0009DF81C109DF820309DF8082041EA030577
:1023D0009DF80C0045EA020454EA000604D03CB122
:1023E00008E000F043F9DDE700F034F80DB0F0BD8F
:1023F000012801D01DB106E000F004FDF6E7012A36
:1024000001D10128F8D061B10129EDD19BB1012B97
:10241000EAD1CAB1012AE7D10028E5D100F09EFC3B
:10242000E4E7012BE0D1012ADED10128DCD100BF95
:1024300000F0B0FCDAE722B1012AD5D10128DBD0C7
:10244000D2E70028F4D0CFE708B10128CCD100F0C2
:10245000BDFCCBE770B532244FF47A75224629468D
:10246000012000F0EBFC22462946022000F0E6FCA9
:1024700022462946032000F0E1FC22462946BDE819
:102480007040042000F0DABC1049002008701049A8
:1024900008701049087010490870104908701049F8
:1024A00008701049087010490870104908701049E8
:1024B00008701049087010490870104908701049D8
:1024C0000870104908701049087070470C0000200F
:1024D0000D0000200E0000200F0000201000002042
:1024E0001100002012000020130000201400002022
:1024F0001500002016000020170000201800002002
:10250000190000201A0000201B00002070B540F6C2
:1025100034044FF4966522462946012000F08EFCD3
:1025200022462946022000F089FC4FF4E16522464C
:102530002946032000F082FC22462946BDE870406F
:10254000042000F07BBC0000084810B50178002989
:102550000AD1012101700020FEF724FF4FF0E02096
:10256000016921F00101016110BD0000000000209F
:102570002DE9F04104460D46FFF7E6FF1E49002015
:102580004FF4FA534FF0E02254EA050632D00E68B9
:102590004FF4FA7700213F1BA941B6FBF3F117D2A4
:1025A0004FF4FA77794351619061116941F001016B
:1025B00011611169CF0701D0C903FAD5116921F062
:1025C0000101116190610D49641845F1FF35DFE7A4
:1025D000A1FB041351619061116941F00101116186
:1025E0001169CB0701D0C903FAD5116921F00101A6
:1025F00011619061BDE8F081280000200CFEFFFF12
:1026000070B532244FF4FA6522462946012000F0C5
:1026100015FC22462946022000F010FC22462946DD
:10262000032000F00BFC22462946BDE87040042040
:1026300000F004BC70B532244FF41671224601201C
:1026400000F0FCFB40F2DC5522462946022000F057
:10265000F5FB4FF416612246032000F0EFFB224603
:102660002946BDE87040042000F0E8BB70B5322474
:102670004FF416612246012000F0E0FB40F2DC55E9
:1026800022462946022000F0D9FB4FF4167122465B
:10269000032000F0D3FB22462946BDE87040042009
:1026A00000F0CCBB70B5322440F214512246012018
:1026B00000F0C4FB40F2DC5522462946022000F01F
:1026C000BDFB40F2A4612246032000F0B7FB224686
:1026D0002946BDE87040042000F0B0BB70B532243C
:1026E00040F2A4612246012000F0A8FB40F2DC5534
:1026F00022462946022000F0A1FB40F21451224656
:10270000032000F09BFB22462946BDE870400420D0
:1027100000F094BB2DE9F0410E4F0D460646984659
:1027200014464FF480713846FEF7FEFA30703915C2
:102730003846FEF7F9FA2870B9143846FEF7F4FA6D
:1027400020704FF480413846FEF7EEFA88F800001A
:10275000BDE8F081000C02402DE9F0410D4F0D461F
:1027600006469846144601213846FEF7DDFA3070D9
:1027700004213846FEF7D8FA287010213846FEF7B3
:10278000D3FA207040213846FEF7CEFA88F80000D0
:10279000BDE8F081000C02402DE9F0410D4F0D46DF
:1027A00006469846144602213846FEF7BDFA3070B8
:1027B00008213846FEF7B8FA287020213846FEF77F
:1027C000B3FA207080213846FEF7AEFA88F8000090
:1027D000BDE8F081000C02402DE9F0410F4F0D469D
:1027E0000646984614464FF400713846FEF79CFAA8
:1027F0003070F9143846FEF797FA28704FF40051FC
:102800003846FEF791FA20704FF400413846FEF743
:102810008BFA88F80000BDE8F0810000000C02404F
:1028200070B532244FF4617522462946012000F02C
:1028300005FB40F6340622463146022000F0FEFA3F
:1028400022463146032000F0F9FA22462946BDE827
:102850007040042000F0F2BA70B58EB001208DF8FF
:1028600004008DF81C008DF820008DF810008DF804
:1028700014008DF818008DF808008DF80C0006ABD8
:1028800005AA04A901A8FFF787FF9DF804109DF889
:1028900010209DF814300C4641EA02059DF81800FE
:1028A00045EA030151EA00062ED009B901281DD0DE
:1028B0001DB9012B01D1012818D014B1012C09D068
:1028C00022E0012A20D1012B1ED101281CD100F0C9
:1028D000C7FB1BE012B1012A0BD015E013B1012B8D
:1028E00002D011E060B10FE001280DD100F0D4FB5F
:1028F0000CE013B1012B06D006E008B1012803D18A
:1029000000F05AFB02E0C8B1FFF78AFF03AB02AA4E
:1029100008A907A8FFF760FF9DF81C109DF820404C
:102920009DF808200B4641EA04059DF80C0045EA95
:10293000020151EA000604D039B108E000F020FBA2
:10294000E4E7FFF76DFF0EB070BD012801D01DB1A7
:1029500006E000F0F9FAF6E7012A01D10128F8D0E3
:1029600063B1012BEDD194B1012CEAD1DAB1012A86
:10297000E7D10028E5D100F03BFBE4E7012CE0D1F2
:10298000012ADED10128DCD100F0C2FADBE722B156
:10299000012AD6D10128DCD0D3E70028D1D100BF4D
:1029A00000F042FBCFE70028FAD00128F8D0C8E7B2
:1029B000FEF7CEF9FFF7E8F8FEF7F6FFFFF7A6F807
:1029C000FFF7C0F8FFF76EF83748FEF78FFD374C7A
:1029D0004FF47A7640F6C41703252078401F092863
:1029E000FBD2DFE800F0061505052E0541054F0076
:1029F000F3E7FDF7CFFEFFF789FD38460021FFF72B
:102A0000B7FDFFF741FD25702748FEF76FFD47E052
:102A100000F04EF830460021FFF7AAFDFDF7BAFEA0
:102A200030460021FFF7A4FDFFF770FD3846002176
:102A3000FFF79EFDFFF728FD1B48FEF757FD072017
:102A40001EE000F067F830460021FFF791FDFFF728
:102A50005DFD38460021FFF78BFDFFF715FD12489D
:102A6000FEF744FD0A200BE0FFF750FD3846002139
:102A7000FFF77EFDFFF708FD0B48FEF737FD0C2042
:102A80002070AAE7FDF786FEFFF740FD38460021DB
:102A9000FFF76EFDFFF7F8FC0348FEF727FD2570F2
:102AA000FFF7F2FC99E700002C0000200B0000204B
:102AB00010B53C220421002000F02EF84FF4FA64F7
:102AC00020460021FFF754FD3C220421012000F0A4
:102AD00023F820460021FFF74BFD3C220421022071
:102AE00000F01AF820460021FFF742FD3C220421A5
:102AF000032000F011F820460021FFF739FD0421E2
:102B00003C22084600F008F82046BDE810400021AD
:102B1000FFF72EBD7047000070B504460D46104605
:102B2000FDF719FD9FED111B53EC112BFDF732FC46
:102B30009FED101B53EC112BFDF79EFC9FED0F1B1F
:102B400053EC112BFDF77FFBFDF712FD0D4A4FF6FD
:102B5000FF730C499470D570D4711072000A5072D2
:102B6000BDE870400A220848FEF7C0BE0000000021
:102B700000409F4000000000008066400000000010
:102B800000407F4001000020AC00002010B564230D
:102B90000F220CA10F48FEF7A9FE64230F220EA1FD
:102BA0000C48FEF7A3FE64230F220FA10948FEF78D
:102BB0009DFE6423BDE810400F220FA10548FEF7DB
:102BC00095BE000023303031503135303054303232
:102BD000303021006C00002023303032503135304D
:102BE00030543032303021002330303350313530E2
:102BF00030543032303021002330303450313530D1
:102C00003054303230302100F0B58DB001248DF8D1
:102C100004408DF810408DF814408DF8184006AB34
:102C200005AA04A901A8FFF797FD9DF804109DF8D7
:102C300010209DF814300D4641EA02069DF8180058
:102C400046EA030151EA00072ED009B901284CD009
:102C50001EB9012B01D1012818D015B1012D09D0C1
:102C600022E0012A20D1012B1ED101281CD1FFF71F
:102C7000E1FC1BE012B1012A0BD015E013B1012BCE
:102C800002D011E060B10FE001280DD1FFF70AFD7D
:102C90000CE013B1012B06D006E008B1012803D1E6
:102CA000FFF71CFD02E000B3FFF7AAFC8DF81C4003
:102CB0008DF820408DF808408DF80C4003AB02AA37
:102CC00008A907A8FFF726FD9DF81C109DF82030E5
:102CD0009DF8082041EA03059DF80C0045EA02042E
:102CE00054EA000604D03CB108E0FFF7BFFCDDE782
:102CF000FFF786FC0DB0F0BD012801D01DB106E044
:102D000000F080F8F6E7012A01D10128F8D061B17E
:102D10000129EDD19BB1012BEAD1CAB1012AE7D13A
:102D20000028E5D100F01AF8E4E7012BE0D1012AF0
:102D3000DED10128DCD100BF00F02CF8DAE722B1A7
:102D4000012AD5D10128DBD0D2E70028F4D0CFE783
:102D500008B10128CCD100F039F8CBE770B53224A6
:102D600040F2DC5522462946012000F067F84FF476
:102D700016612246022000F061F82246294603200F
:102D800000F05CF82246BDE870404FF41671042054
:102D900000F054B870B5322440F2DC552246294682
:102DA000012000F04BF840F226212246022000F0DC
:102DB00045F822462946032000F040F82246BDE8A7
:102DC000704040F69211042000F038B870B53224FB
:102DD00040F2DC5522462946012000F02FF840F24F
:102DE000A4612246022000F029F822462946032049
:102DF00000F024F82246BDE8704040F2145104204F
:102E000000F01CB870B5322440F2DC552246294649
:102E1000012000F013F840F214512246022000F085
:102E20000DF822462946032000F008F82246BDE8A6
:102E3000704040F2A4610420AFF3008070B51446E6
:102E400086B00E460546024627A104A8FFF772F891
:102E5000A6F2F51040F2CF71884240D2002C3ED04D
:102E600042F20F7084423AD2042D38D8002D4FF030
:102E7000640336D003221DA11D48FEF737FD6423ED
:102E8000012204A91A48FEF731FD6423012219A189
:102E90001748FEF72BFD334617A205216846FFF7BA
:102EA00031F86423042269461148FEF71FFD6423AC
:102EB000012213A10E48FEF719FD23460EA205219B
:102EC00002A8FFF71FF86423042202A90848FEF7AE
:102ED0000DFD642301220BA10548FEF707FD06B096
:102EE00070BD052208A1D3E725640000233030001F
:102EF0006C00002050000000253034640000000009
:102F0000540000002100000023323535500000003D
:102F100070B5322440F2DC55224629460120FFF7E5
:102F20008DFF224629460220FFF788FF40F69215C2
:102F3000224629460320FFF781FF22462946BDE8A5
:102F400070400420FFF77ABF70B5322440F2DC55A0
:102F5000224629460120FFF771FF2246294602201A
:102F6000FFF76CFF4FF4E165224629460320FFF787
:102F700065FF22462946BDE870400420FFF75EBF8A
:102F800070B5322440F63405224629460120FFF769
:102F900055FF224629460220FFF750FF40F2DC553C
:102FA000224629460320FFF749FF22462946BDE86D
:102FB00070400420FFF742BF70B532244FF4E16542
:102FC000224629460120FFF739FF224629460220E2
:102FD000FFF734FF40F2DC55224629460320FFF775
:102FE0002DFF22462946BDE870400420FFF726BF8A
:102FF00070B5322440F2DC55224629460120FFF705
:103000001DFF224629460220FFF718FF4FF4617585
:10301000224629460320FFF711FF22462946BDE834
:1030200070400420FFF70ABF70B5322440F2DC552F
:10303000224629460120FFF701FF224629460220A9
:10304000FFF7FCFE4FF49665224629460320FFF762
:10305000F5FE22462946BDE870400420FFF7EEBE8B
:1030600070B532244FF46175224629460120FFF7DE
:10307000E5FE224629460220FFF7E0FE40F2DC553D
:10308000224629460320FFF7D9FE22462946BDE8FD
:1030900070400420FFF7D2BE70B532244FF496651D
:1030A000224629460120FFF7C9FE22462946022072
:1030B000FFF7C4FE40F2DC55224629460320FFF705
:1030C000BDFE22462946BDE870400420FFF7B6BE8B
:1030D00000000000000000000102030406070809C8
:1030E0000000000001020304083100080000002075
:1030F0002C0000007C1F0008343100082C00002048
:10310000C40400008C1F000800FF01000100FF0242
:1031100000DC0501000000000000000000000000CD
:10312000000000000100000010000000000000008E
:043130000024F40083
:040000050800018965
:00000001FF
